:020000040800F2
:10600000081000203DA6000821EB0208D962000814
:10601000D962000829EB020831EB0208D9620008B6
:10602000D9620008D9620008D9620008D962000864
:1060300035EB0208FC990308D9620008D962000810
:10604000D9620008D9620008D9620008D962000844
:10605000D9620008D9620008D9620008D962000834
:10606000D9620008D9620008D9620008D962000824
:10607000D9620008D9620008758901080D890108F4
:10608000D9620008D9620008D9620008D962000804
:10609000D9620008D9620008D9620008D9620008F4
:1060A000D9620008D9620008D9620008D9620008E4
:1060B000D9620008D9620008D9620008D9620008D4
:1060C000D9620008D9620008D9620008816300081B
:1060D000D9620008D9620008D96200085D6300082F
:1060E00039630008D9620008D9620008D962000843
:1060F000D9620008E93F0308894A03081B670308BF
:106100001767030831420308316703081F67030854
:10611000594A030823670308C94A0308314B030897
:10612000D9620008D9620008D9620008D962000863
:106130000DDB0008D9620008D9620008D9620008A6
:10614000D9620008D9620008D9620008D962000843
:10615000D9620008D9620008D9620008D962000833
:10616000D9620008D9620008D9620008D962000823
:10617000D9620008D9620008D9620008D962000813
:10618000D9620008D9620008D9620008A173030827
:10619000992E0308D9620008076703080D670308F2
:1061A000D9620008D9620008D9620008D9620008E3
:0461B000D9620008A8
:1061B400F0B5114A114C124E00F00105E3695F0776
:1061C40013D40DB9334213D103EA00078F4207D128
:1061D4000B4A1A40002A0CBF00206FF00100F0BDEA
:1061E400013AEBD16FF00200F9E74FF0FF30F6E728
:1061F4006FF00100F3E700BF8096980000000350A1
:10620400020001002DE9F84F16464FF48032274B67
:10621400274D9A66EB69074603EA020841F6713393
:106224000122EB63234BDFF89490DA600EB9304619
:1062340029E007F5005404EA09046F61E41BEB69E3
:10624400B44228BF34465B072DD48B465BF8043B2D
:1062540001EB040AAB61D3450ED1042300212120B4
:106264002B61FFF7A5FF70B92120FFF7A1FF50B9FB
:1062740059462744361BD9E708210846FFF798FFFB
:1062840068B104232B6101220B4BDA60B8F1000FD3
:1062940003D00022A3F50053DA63BDE8F88F5BF85E
:1062A400043BAB61D7E74FF0FF30ECE700900050C0
:1062B40000000350001003500020035000E0FFFFD3
:1062D000013800D0FCE77047FEE72DE9F0410446A5
:1062E0000C264FF00108134D0CB314F001000BD035
:1062F000002024F0010406FB00525768002FF3D061
:106300009168C0B2B847EFE72246013020284FEA33
:10631000520201D0D307F8D508FA00F20F2824EA78
:106320000204E8D9103806FB0052B432E5E7BDE8B4
:10633000F08100BF08100020074BD3F82404D3F8E5
:10634000202403F50053104000F0553020F0A04009
:10635000C3F82004C1E700BF00C00350074BD3F8C7
:106360002404D3F8202403F50053104000F0AA3091
:1063700020F02040C3F82004AFE700BF00C0035066
:106380001A4B2DE9F0411F6D5B6D1F4000D5FEE7F4
:1063900001260025164CDFF8608037421CD0C8F873
:1063A00050602368C3B1A168284601316268A160CA
:1063B0009847637B012B0FD170B90E4B03EB45134C
:1063C00093F8F42160F3410283F8F42193F8042256
:1063D00060F3410283F804220135082D4FEA460696
:1063E00004F11004D9D1BDE8F08100BF00000450D1
:1063F0007011002008100020002004504369426CF6
:10640000D91C143AB1FBF2F103EBC1000330B0FB2D
:10641000F2F00230704738B505460C46FFF7EEFF44
:106420006A6CE31D143AB3FBF2F3013304EBC304CB
:1064300002FB004038BD38B5054644692146FFF7E8
:10644000EAFF6A6CE31D143AB3FBF2F3013304EB89
:10645000C304204438BD73B506460D460024F36BD3
:1064600001225B6901A928199847019B013309D1D1
:10647000736C043462196A405B421A42EFD02046C2
:1064800002B070BD0024FAE7D01E009B4242424198
:10649000187E824211D11A688A420ED85A688A42FE
:1064A0000BD35A6901325A61D3E9030282423FBFDA
:1064B000986840F8221001321A61012070470023C9
:1064C0004FF0FF3230B544689C4202D10023037282
:1064D00030BD016801EBC30541F833206A60013328
:1064E000F2E70023F0B545689D4210D00468DF0054
:1064F00054F8332004EBC306B2F1FF3F08D0C2F3D7
:106500001302914204D14FF0FF33E3517360F0BDA9
:106510000133E9E710B5032A029C07D1A26A534070
:10652000626C5242134201D1FFF7DBFF012010BD24
:106530000023F0B545689D4202D14FF0FF300EE0D8
:106540000468DE0054F83340671C09D0C4F3130715
:10655000B94205D1240D1470036833445868F0BD66
:106560000133E8E773B5164600F108040D462046EE
:1065700009680DF10702FFF7DBFF032E05D16B68F9
:10658000834202D12046FFF7ACFF012002B070BD6C
:106590002DE9F043466886B3056898464FF0000C35
:1065A000A946AE4655F83C400CF1010CC4F3130764
:1065B000013401D0B94217D066450EF1080EF1D171
:1065C0002F46002403E0A64207F1080712D055F831
:1065D000343001340133F6D1C1F3130141EA0851DB
:1065E000C7E90012BDE8F08341EA0851CEE9001284
:1065F000BDE8F083B8F1030F03D101230372BDE8B6
:10660000F083002303E09E4209F10809F5D055F814
:1066100033400133C4F30754032CF4D1C1F3130303
:1066200043EA0853C9E90032BDE8F08308B50830F1
:106630001346D1E90012FFF7ABFF012008BD4FF46C
:106640008032064B00209A6641F6713203F51C3306
:10665000DA63012203F50053DA60704700900050BE
:10666000704737B5054601F10C04436901A90122C1
:1066700020469847BDF80430012200936946204621
:10668000AB69984703B030BD174B10B50446D3F83B
:10669000200100F0070006281FD8DFE800F0040AF8
:1066A0000E2112161A00012304B1206001B10B6003
:1066B00010BD0E4B18680523F6E70C4B58680323F2
:1066C000F2E730F0EFF90723EEE7084B18680623EE
:1066D000EAE7064B58680423E6E700231846E3E799
:1066E00002230348E0E700BF008000500C44002074
:1066F000002D3101024A536B0342FCD1704700BFA9
:10670000008009504FF480322DE9F843204B4FF0C0
:1067100001089A6641F671331E4D0446EF69EB633A
:106720001D4B0021C3F80C800223686121202B61DE
:10673000174032F051F8DFF86890064640B1C9F8CA
:106740000C8007B1E96301360CD16E20BDE8F883F7
:10675000212032F041F8C9F80C8007B1EE63431CE8
:10676000F3D008B17120F1E70C4B9A6801230A328B
:1067700002F01F02934023F0030323449C4201D103
:106780000020E3E754F8042B0132F7D03E20DDE788
:106790000090005000000350001003500080E00FF4
:1067A00000200350A0F50623A3F55063B3F5807FC6
:1067B000024616D85809082813D0012302F01F02F8
:1067C00003FA02F2084B03EB8003D3F8E8121143FB
:1067D000C3F8E812D3F8081321EA0201C3F808133A
:1067E00070474FF0FF3070470810002010B5A0F53B
:1067F0000624A4F55064B4F5807F1FD86409082CE2
:106800001CD001220F4B00F01F0003EB84018240DB
:10681000D1F8080303F53A730243C1F808230022B4
:10682000114653F8040B0132082A0144F9D119B971
:10683000202205482FF056FB204610BD4FF0FF34B4
:10684000FAE700BF081000201013002000280CDB1E
:1068500001220649430900F01F008240203341F81D
:106860002320BFF34F8FBFF36F8F704700E100E02D
:106870004FF06042D2F8803E1B02FBD4704780F894
:106880009910704790F89900704790F896007047FB
:10689000D0F8A4309A695206FCD50020D96370471D
:1068A000D0F8A4309A69120643BF5B6A00200B70CF
:1068B0001B2070470122D0F8A43019B103F5805392
:1068C000DA64704703F50053DA649A647047174B33
:1068D000B3F82803020A10F0FF00134604D1012A7E
:1068E00023D143F080007047072BFAD801A252F859
:1068F00023F000BF19690008E36800081569000863
:1069000029690008296900081D6900082169000833
:106910002569000809207047184670470320704712
:106920000B20704706207047022070470810002097
:106930004BF6EF6283B2002B08BF1346044A000CEB
:1069400013814FF6CE2308BF18465081704700BF11
:106950000C44002038B5202204460D460C3000219E
:106960002FF0C0FA4FF0FF33C4E90035A36038BD03
:10697000F8B5134642880C460732072A4FEAD2017F
:1069800001D0A14245D1D0E90167058820221846EF
:1069900000212FF0A7FA360A034626B1012E10D0A7
:1069A0006FF08B00F8BDA4B341F20102954205D00F
:1069B000B5F5885F02D0B5F5905F19D15C60002015
:1069C000F0E7C6602CB341F2010295420AD15C6047
:1069D000B90707F001020ED4002AF0D14FF08072FF
:1069E0009A60ECE7B5F5885FF1D0B5F5905FEED031
:1069F000B5F5105F02D06FF08500D3E7182C03D0F7
:106A0000202C01D0102C04D1C3E90044002ED6D094
:106A1000DEE76FF08600C5E71FB54FF000639B6AA5
:106A200003F17842B2F5C04F1CD21C6B04F17843DD
:106A3000B3F5C04F16D2002301A8CDE9023324F0EC
:106A4000E7FD039BDB030DD5029B1A0E0AD0012A3A
:106A500003D1C3F307430A2B04D9236C04B0BDE868
:106A60001040184740F2011004B010BD10B50446A4
:106A700044EA010313F00303084609D1934201D10C
:106A8000002010BD54F8231040F823100133F5E71F
:106A9000214692002FF0F3FFF2E738B5074D084684
:106AA00095F82A431146064A2346928924F032FA81
:106AB00010B9013485F82A4338BD00BF0810002002
:106AC0000C44002038B5074D084695F82B43114675
:106AD0002346112224F01EFA10B9013485F82B4305
:106AE00038BD00BF081000202DE9F743D0E9043479
:106AF00004F17C07D0F80C900646013B10220021DF
:106B00003846D4F874809DB22FF0ECF90B4BC5F3E6
:106B10000A0543EA0513C4E91F39012394F87800F4
:106B200084F88C30C4F884803A46054B009604F112
:106B3000640127F0D7FF03B0BDE8F08300001030F8
:106B4000456B0008536910B514460022D3F8900035
:106B500083F88C2028B10168C3F890100260FFF719
:106B6000C3FF63681BB100212046A268984700203C
:106B700010BD034693F89420084610B5FAB10A698F
:106B8000B2F5006F1DD8EFF31184302282F3118823
:106B900093F88C204B617AB103F19002D3F89030D6
:106BA0003BB90360106084F31188BFF36F8F00203E
:106BB00010BD1A461B68F3E7FFF796FFF3E70E20B8
:106BC000F6E72120F4E713B504460DF10701007D37
:106BD00031F0E0FC9DF8073043B1236DD4E9120297
:106BE0000244934218BF184602B010BD3022237DE4
:106BF000534303F1A04303F58023DB6EEEE72DE959
:106C0000F84F884693469946EFF3118A4FF02001DA
:106C100081F311881F4F3B78532B01D00CF09CFF60
:106C2000D7F8C051D7F8BC61B5422BD9D7F8B841D5
:106C3000D7F8B411641B5C4528BF5C464046294424
:106C400022462FF01CFFD7F8B83125449D4208BFDB
:106C50000025A044ABEB040B761B5E4528BF5E46C7
:106C600046B1D7F8B4113246294440462FF007FF09
:106C70003444354444B98AF311881B20C9F80040D4
:106C8000BDE8F88F0024E7E7C7F8C0518AF3118800
:106C90000020F3E7004C0020282307B5054A3D20DB
:106CA000CDE900320449702302220DF045FE03B005
:106CB0005DF804FB3800E00FE887030830B40446B1
:106CC000EFF3108072B6256885EA02030B406B4033
:106CD000236030BC31F079BC38B504464B4A936D23
:106CE000D903FCD4916D11F08041FBD1D4E90003AC
:106CF0001B0543EA0063E07B0343207B43EA004338
:106D0000607B43EA0033A07B43EA80131361906900
:106D1000D4E904531B0643EA856300F000400343B3
:106D2000A07EE57E0343207E43EA0043607E43EA83
:106D300000239361136AE06923F00F0343EA85039C
:106D4000334D00283DD1136294F82430916A94F8B1
:106D50002000DB00294043EA40130B4394F8211044
:106D600043EA011343F4803393622A49274A936D1F
:106D700031EA0303FBD14FF0807127488162136928
:106D8000A56823F4700343EA055313614FF00043F1
:106D9000836194F822300BB9204B996294F8233028
:106DA0003BB94FF480321D4B9A62184A936D5B00D9
:106DB000FCD494F825301BB1144B194AC3F8802039
:106DC00038BD034343F008030228136208D1116160
:106DD000144891614FF408524FF47F41FFF76EFF62
:106DE0000A4994F822308A6A94F820001B062A4047
:106DF00043EA4013134394F8242043EAC20394F86F
:106E0000232043EA02438B62D3E700BF0040005ACD
:106E1000C7FFFEFE030001000050005A0060005A48
:106E2000F1A7FFFF3440005AF8B504460D46EFF3D2
:106E30001186302383F3118890F89630A1B173B98D
:106E400090F898305BB1EFF3108572B6012031F005
:106E50004BFB0123284631F0B8FB84F8963086F3CB
:106E60001188BFF36F8FF8BD002BF8D0EFF31087B8
:106E700072B6084631F038FB384631F0A6FB84F88C
:106E80009650ECE7BFF34F8F0549064BCA6802F4F2
:106E9000E0621343CB60BFF34F8F00BFFDE700BF3D
:106EA00000ED00E00400FA054FF0FF307047FEE708
:106EB000002070470020704700207047002808DB42
:106EC00001224309034900F01F008240603341F86A
:106ED0002320704700E100E02DE9F0418846164686
:106EE000044600286AD00F296AD803782BB1012BF9
:106EF00056D0022B57D0032B62D140F2FF73627839
:106F0000D340DB075CD5304AD2F81053002D59D15D
:106F1000EFF31187302181F31188D2F8100308F1C3
:106F2000FF300E28237894F801C042D8012059433D
:106F300000FA0CF00A44002E38D002F5825210609C
:106F400042460F21BCF1070F03EB430388BFACF1AE
:106F5000080C4FEA03131D4895BF4FEA8C0C4FEA0B
:106F60008C0C04330C3302FA0CF201FA0CF11844C5
:106F7000FFF7A4FEB8F1000F0BD101223020637897
:106F800021789A40104B00FB0133A6B103F58253E0
:106F90001A6087F31188BFF36F8F2846BDE8F08130
:106FA00040F2FF13ABE743F6FF73A8E702F5015287
:106FB000C5E72A46C5E703F50153E9E72225ECE7D3
:106FC0002125EAE70225E8E700C0035030C003505E
:106FD00010B528B303782BB1012B1BD0022B1CD08A
:106FE000032B1FD140F2FF734278D340DB0719D542
:106FF000EFF31184302383F3118801220178407864
:107000005943094B82405A5084F31188BFF36F8F64
:10701000002010BD40F2FF13E6E743F6FF73E3E7FD
:107020002220F6E72120F4E740D0035010B528B322
:1070300003782BB1012B1BD0022B1CD0032B1FD1AB
:1070400040F2FF734278D340DB0719D5EFF3118488
:10705000302383F311880122017840785943094B8A
:1070600082405A5084F31188BFF36F8F002010BD07
:1070700040F2FF13E6E743F6FF73E3E72220F6E76B
:107080002120F4E740E003500B4B93F82C2362B12E
:1070900007280CD803EB001393F874314BB101238C
:1070A000064A83401364002070470548704705482E
:1070B00070470548704700BF0810002000100450BA
:1070C000028000F0018000F0078000F00B4B93F885
:1070D0002C2362B107280CD803EB001393F874310A
:1070E0004BB10123064A83401364002070470548D2
:1070F0007047054870470548704700BF08100020DA
:1071000000200450028000F0018000F0078000F0B1
:10711000014638B508B9012038BD047D2046FFF787
:10712000B3FF3023634303F1A04303F580232046DC
:10713000DD6EFFF7CBFF0A4B9D421CBF042381F895
:10714000A13091F8953091F8A1002BB1022803D11C
:10715000012381F8A130DFE70428DCD1F8E700BF84
:107160003513002010B5EFF31184302383F3118819
:1071700000220E490B7B73B90D49026001EB02122C
:107180000121C2F8683182F8741184F31188BFF3C9
:107190006F8F184610BD0132082A01F11001E9D1A4
:1071A00084F31188BFF36F8F0248F3E7701100205A
:1071B00008100020048000F073B5054690F8426086
:1071C0001C4630460DF1030327F052FAEB6B012EFB
:1071D0005B690DD1324601A998479DF8033013B180
:1071E000BDF806300193BDF80430236002B070BDD5
:1071F0000122214602B0BDE8704018470346084608
:10720000EFF3108172B6034ADB6BC2F83013DB6810
:10721000184700BF081000202DE9F04106464068DD
:1072200082B0C0B10F4690460024336853F8345002
:1072300003EBC403C5F30752C5F31301013504F191
:10724000010406D05B683046CDF80080B84710B125
:1072500070688442E9D302B0BDE8F081036813F09E
:107260007E0F03D1406820F07C40704713F0780017
:107270001CBF03F07F03D81F7047202A0B681EBF76
:107280004FF0FF3191408B43590801F055315B1AA3
:1072900003F033319B0803F033330B44017803EBE5
:1072A00013130A444FF0013103F00F334B43A2EBA9
:1072B0001362027070472DE9F041054600244868CA
:1072C000EB6B86B00E4601225B69029402A908307E
:1072D0009847A04695F84230012B40F08180632CFE
:1072E00003D9029806B0BDE8F081612C08D805AB3F
:1072F000224631462846FFF75FFF9DF8143013B34E
:1073000005AB2246314628468DF81080FFF754FF22
:1073100095F84230059F012B52D14FF6FF739F42E3
:1073200000F09180082205A904A8FFF7A6FF9DF8A8
:107330001020C7F307239A4240F08580FFB2029BDA
:107340003B4402937FE095F84230012B2ED1224638
:107350003146284603ABFFF72FFF3146284604ABE2
:10736000621CFFF729FF3146284605ABA21CFFF738
:1073700023FF102208230DEB02010DF107008DF809
:107380000730FFF77AFF102205A9FFF776FF039B6E
:10739000DAB2002A50D19DF80720B2EB132F4BD15F
:1073A000DDE9043203EB0243029345E0302C29D996
:1073B00042E09DF80720B2EB134F3DD1049BF3E769
:1073C0007B1C40D0102205A90DEB0200FFF755FFF2
:1073D0009DF81020C7F307439A4234D1BFB2AEE7FD
:1073E000312C3FF67EAF8BD005AB22463146284686
:1073F000FFF7E2FEBDF81430002B81D195F8423042
:10740000012BA4D022463146284603ABFFF7D4FE19
:107410003146284604AB621CFFF7CEFE1023202223
:107420000DEB03010DF107008DF80730FFF725FF85
:10743000039B9AB2002ABCD095F84230012B14BFAE
:10744000012302231C44013444E737B504460025D8
:107450001B22011D0DF107008DF80750FFF70DFFEE
:1074600063689DF80720B2EBD36F03D123F0784017
:1074700003B030BD1B2204F108018DF80750FFF75F
:10748000FCFEA0689DF80730B3EBD06F0ABFC04385
:107490004FF0FF3020F07840EAE74BF29A22036881
:1074A00010B5B2EB134F044613D19BB2012B15D18B
:1074B000FFF7CBFF013011D04FF6FF72E068B2EB5F
:1074C000104F4FEA10430BD180B2C01A18BF0120F1
:1074D00010BD013314BF04200320F9E70420F7E7AF
:1074E0000220F5E7F0B50546002687B0EC69013CBF
:1074F000B44203D80C46204607B0F0BD01B14C1E83
:107500006F6C2868EB6B05225B6901A907FB04001F
:10751000984701A8FFF7C1FF0128ECD921460136A1
:10752000E4E70368F0B5CC1A436C0646B4FBF3F409
:10753000002587B0F36937685A1E9542706C06D3F0
:10754000736C306803FB0400143007B0F0BD0134E5
:10755000B4FBF3F203FB1244F36B05225B6901A950
:1075600000FB0470984701A8FFF797FF0128E7D9AF
:107570000135DFE710B423F0030422449B070A44DB
:10758000436C18BF04325B4282EA0104234202D0FA
:107590005DF8044BC5E710465DF8044B70472DE9D4
:1075A000F04F144606460F468BB00393C36B01227F
:1075B0005B6907A960689847F36B01225B693846ED
:1075C00006A99847079B5D1C07D10022A360A275FE
:1075D000627500200BB0BDE8F08F0122A275002279
:1075E000217E069D04EBC101CF610A846068C5F36A
:1075F000D31CB84205F07F010CD14FF0FF33C4F823
:1076000000C02175A360237D043B022B26D80023F4
:10761000A375DEE794F814E020688E4503D1A0EB53
:107620000C004242424103F07F0001288CBF002041
:10763000012001298CBF00210121884218BF0022AE
:1076400015F07E0FA27503F07E0304D1002BDAD073
:107650000023A375D7E7002BD5D1F9E715F07E0FEE
:107660000FD1F36B022238465B6908A9984708A836
:10767000FFF7F4FD237D032B4FD8DFE803F0130D54
:10768000045706A8F4E7CC22237E04EBC3031A8434
:107690000123694AD35C0AE0237E04EBC303188408
:1076A0000023F6E7237E04EBC30318840123149A16
:1076B0001370069A12F07E084FEAD26A227E37D102
:1076C000F36B04EBC2020AF003055B69B2F8209089
:1076D00082F8225008A902223846984720220DF14C
:1076E00017000DEB02018DF81780FFF7C6FD1A2277
:1076F00009A9FFF7C2FD9DF81730099A4FF0080B52
:10770000B3EB926F0CBF012300236375637D33BB22
:107710000023A3754FF0000851E0227E013BDBB24D
:1077200004EBC202052B1084C0D8B2E70223B0E7F5
:10773000002504EBC202B2F8209082F8225006A97C
:107740001B2208A88DF82050FFF797FD9DF82020F8
:107750004FF0040BA2EB0A0253425341D5E794F8D1
:107760001680B8F1000FD5D0B9F1000F09D1DDB105
:107770000123E375637E002B35D1012D28D1657679
:1077800014E0736C07EB0B02594287EA02000842CF
:107790001CBF0021A175591E0A409B1A4B45B7D347
:1077A000A37D002BE3D1B5E7E37D43B94FF000089B
:1077B0004B465A4639463046FFF7DCFEA060A27DB4
:1077C000237EBAB9012B33D801332376A07D01E79C
:1077D00096F8343063B9F36A0133E9D1032DE7D168
:1077E0000123A376E2E7012DE9D0032DDED1F7E7EF
:1077F0009846DDE72269012B4A44226118D80133FB
:107800002376039B002BE1D0E37D002BDED0B8F183
:10781000000FDBD1032DD9D0A1684B1CD6D0149B0F
:107820002246009330460123FFF7B9FEA075CDE74D
:107830000023A375CAE700BFE091030813B50C4607
:10784000002121760093616813462246FFF7A7FEC8
:1078500018B1E37D03B1A07EA075A07D02B010BD7C
:107860002DE9F743044616461F460D46DFF874809F
:10787000816AE36A8B421ED04B1C1CD0DFF86090FB
:107880004846FFF767F80122494620460DF10703F5
:10789000FFF7D4FF30B13B4620469DF80720104942
:1078A000B04740B1D8F83C134A1C07D0012D0DD089
:1078B000E36A9942E4D103B0BDE8F083D8F8381305
:1078C0002046FFF72EFE012D0146D2D1D8F83833DD
:1078D00081EA0302636C5B421A42ECD1C9E700BF44
:1078E0003C130020081000202DE9F0410F461646F9
:1078F0009846044688B060B390F83450FDB1012139
:10790000FFF77CFC00210E9BCDE90511CDE9023784
:107910009DF83C30CDF804808DF81C30237C049613
:107920008BB90D4901AA04F10800FFF775FCDDE9E8
:107930000553E06B002E08BF1D4626F0E7FF2846E2
:1079400008B0BDE8F0812046044A01ABFFF788FF8C
:10795000EDE70546F3E700BF896400081D7C0008D9
:107960002DE9F041D0E90A369E42044686B028D17E
:107970001422C369456802FB1355284606B0BDE8CA
:10798000F0812068676C331AB3FBF7F3E26B07FBF7
:107990000300D2F8148001A90522C04701A8FFF70F
:1079A0007CFD012804D0636C1D44013B3340ED1A7B
:1079B00031462046FFF7B5FD0646A36AB342E0D143
:1079C000DBE70025F9E72DE9F04F0F469A46002343
:1079D00089B004464FF0FF31104690468DF80B30C9
:1079E000FEF7B8FFB7F5801F20D2394603AA04F18D
:1079F0000800FEF79DFD451C014605D1237CBBB95F
:107A00002D2009B0BDE8F08F4046FEF7A3FF01220C
:107A1000414620460DF10B03FFF710FF0028EDD083
:107A20009DF80B308AF800300020EAE7B81CE5D159
:107A3000E66A711C2CD12046616AFFF753FD0646A9
:107A4000BB1C18BF0123DFF8C4B00093636A626CEB
:107A50000193236803A902FB0639E36B484605221C
:107A60005B6909F114099847002549464B1C05D06C
:107A7000636C81EA09025B4213420FD03146204613
:107A8000FFF730FD019BB3422FD085BB0646DDE7F3
:107A90002368F61A636CB6FBF3F6D1E71A48FEF7D3
:107AA00059FF2046009A18490DF10B03FFF7C6FE57
:107AB0008446B8B1BA1C03D0DBF86033BB4211D1A5
:107AC00045469DF80B30DFF840E08AF80030BEE80C
:107AD0000F000FC5BEE80F000FC59EE8070085E840
:107AE00007006546DBF86813C0E7002D88D0B7F5BE
:107AF000801F99D239469AF80030D8F8042004F152
:107B00000800FEF745FD8FE76813002008100020ED
:107B10002DE9F04385B00C4617461E460546DDF8B4
:107B20003080A0B390F834309BB3B1F5801F32D2CF
:107B3000DFF868900121FFF761FB214628460DF12F
:107B40000F0309F56372FFF73EFF044688B99DF8FD
:107B50000F30012B14D1D9F89C2306EB08039A426D
:107B600013D30090434632463946284623F08EFC14
:107B70000446E86B26F0CAFE204605B0BDE8F08357
:107B8000022B14BF2D246024F3E76324F1E72124A2
:107B9000F2E71124F0E72924EEE700BF08100020E7
:107BA0002DE9F3411F4600230C46164605463B606F
:107BB00058B390F8343053B3B1F5801F29D2DFF8B1
:107BC00058800121FFF71AFB214628460DF10703D3
:107BD00008F56372FFF7F7FE0446A0B99DF8073079
:107BE000032B10D0022B0AD10123336004233B6006
:107BF000E86B26F08BFE204602B0BDE8F0813060D5
:107C0000D8F89C33F3E72D24F2E72124F3E711247D
:107C1000F1E72924EFE700BF0810002073B50D46F7
:107C2000D11E4A421C461B7E4A419A4228D12968ED
:107C30002368994224D36368994221D8124E0DF1EA
:107C4000070306F56E72FFF7BEFEC8B9D6F8BC236F
:107C50006B689A4214D19DF80730DA1E53425341A3
:107C6000227E93420CD1636901336361D4E903231B
:107C7000934205D22968A26842F823100133236198
:107C8000012002B070BD00BF0810002070B50025B3
:107C9000044686B00562E369AB4202D8206A06B0AA
:107CA00070BD666C2068E36B05225B6906FB05000E
:107CB00001A9984701A8FFF7F0FB012898BF236AA4
:107CC00005F101059CBF01332362E4E72DE9F04F84
:107CD00097B0CDE908230F460A69416CD31D1439CA
:107CE000B3FBF1F3013302EBC302036B044693428F
:107CF000C0F008820023DFF880920C93E36A9C486E
:107D000019460693FEF726FED7E903360393099B2F
:107D1000022B61D1CC2E40F0E081089B002B2DD0AE
:107D200039462046FFF7C7FA656C069A6B1E13406A
:107D30001290ED1AE36B01225B69786814A99847E9
:107D4000149B13F07E0F14BF04230823782E059391
:107D500051D9012200234FF0080A04923A68C9F869
:107D60007063C9F86023099A032A62D0022A14D0EA
:107D7000049A002A14BF0022072212E0039B01226A
:107D80001B684FF0080A12933B680492C9F86033ED
:107D900008230593089BC9F87063049AC2F1020294
:107DA000D2B289F874234FEA9A020E92069A01928F
:107DB00000220A920D9207920B92606C019A411E6A
:107DC0001140421A002E36D053449A423ED8236BBB
:107DD0001B1A0B44236359E1656C069A6B1E134012
:107DE000782EA5EB030516D8FB7D7BB9089B002BED
:107DF000A0D104230593331DAB4212D9B6B1082D8F
:107E0000A7D8042300229A460492A7E7089B002BD8
:107E100090D10823EEE7089B002B8BD10823059314
:107E200097E7002304934FF0040A97E7042304968E
:107E3000F9E7099AB5E75245C9D3B046019B5344C7
:107E40000293079B002B18BF032314E0A2EB0A0246
:107E5000019B9642B046534428BF904696420293F7
:107E6000EFD90123D9F8702389F87733964243D1AB
:107E7000019AC9F86423079399F87733002B3DD012
:107E800099F878230199D31C09EBC303C3F8641351
:107E900007990132A3F8688383F86A1389F8782375
:107EA000B8F1000F14D0099B022B2BD10A9B7BB990
:107EB0000D9B4344032B0BD9E36B01229B69029872
:107EC00012A998470546002840F01E8101230A9315
:107ED00099F874333D68274A012B02EAC51528F04A
:107EE0007C4B40F290809A1E012A03D908F10703C7
:107EF00003F07F031D438CE00223BCE7019BC9F81C
:107F00006433CDE7089B002B38D1039BB8F1030FF6
:107F100003EB080B28D9DDE90201E36B4FEA980275
:107F20009B6998470546002840F0D18018F003026D
:107F300066D0039B28F003052B440393029B1D444A
:107F40004FF0FF33039913A813932EF098FDE36BC2
:107F5000284601229B6913A998470546CDF80CB025
:107F6000002DB5D0029B76E04246029DE8E700BFB7
:107F70006813002080FFFF070810002007F120038E
:107F8000DDF808B00F93FB7D78689BB100233D7E40
:107F90000B9AD9B28D4211D90F9903F1010C31F826
:107FA0003310914226D9059907EBC303D8690A44D7
:107FB000104403E00B9B059A13441844E36B012221
:107FC0005B6913A99847139B012211930B9B584699
:107FD00004330B93E36B11A99B699847029B0546F9
:107FE0004344A3EB0B03042B07D9002872D10BF1F8
:107FF000040BC8E76346521ACBE7CDF808B0AFE7E9
:10800000CDF80CB064E7079A43EAC2632B4343F010
:1080100060454FF000038DF84C30049BCDE9145BB4
:10802000002B49D0202214A913A8FFF726F91A2201
:1080300015A9FFF722F99DF84C304BEA836315939D
:10804000E36B0E9A9B69019814A99847019A051E43
:108050000C9B18BF134652460C9320464346019989
:10806000FFF788FA236B08F10302A3EB0A0322F05F
:1080700003029B1AC9F868032363002D44D10D9BAA
:10808000A6EB080643440D93029B019320460199F9
:10809000FFF747FA00230190002E7FF48EAE494A85
:1080A0003968D2F8683304F10800E362D2F8642337
:1080B000099BFEF76DFA11E01B2214A913A8FFF724
:1080C000DCF89DF84C3045EAC3651495B8E7CDF867
:1080D0000CB047E7CDF808B044E77026304617B03B
:1080E000BDE8F08F002650E03A69616CD31D143969
:1080F000B3FBF1F3013302EBC302236B9342BFF4F2
:10810000FDAD5DE01C26E9E73D2D59D104F10803E2
:1081100001932668069B2046E16AD4F844A0A3EBAD
:10812000060BFFF7FEF9A26ABBFBFAFB8242DBD02B
:10813000616CD9F8682301F1FF3C02EA0C0C226B58
:108140000C9B521A624422632268E0629A1AB2FBC4
:10815000F1F8C345C6D10AFB0866069B06F1140B6D
:10816000B3EB0B0611D0E36BB20859469B699847F5
:108170008246E26A069B3244E262226B0198D21A7E
:108180005A442263FEF79BF956462368616CE06B04
:1081900001FB0831FEF765FA2046FFF777FD204620
:1081A000FFF7DEFB2063002E9ED03A69616CD31D81
:1081B0001439B3FBF1F3013302EBC3029042A8D2AE
:1081C0002E468BE7081000202DE9FF471E46436925
:1081D0000446B342884617469DF830907FD3002569
:1081E0008DF80F502046FEF726F9D4F830A08245CE
:1081F0000AD2236AB5EB430F06D220460DF10F01D8
:1082000023F082F8002868D09DF80F30012B04D1AC
:1082100020460DF10F0123F077F8B9F1030F06D0D6
:1082200031462046FEF7F7F8256B854259D32E4D8F
:108230004FF0FF3105F56E70FEF78CFB4B460022C8
:10824000204605F56E71C5E9F176C5F8B883FFF7EC
:108250003DFD236E0746002B3BD02046FEF7EBF892
:10826000636E256B03449D422CBF0023012385428E
:1082700094BF00252D1A6565257C002684F85030B2
:1082800084F85850D5B1DFF8648033463246314621
:1082900020460196CDF80080FFF726FB0123054616
:1082A000CDE900833246334631462046FFF71CFBBA
:1082B000E36805449D4294BF3546ED1A94F850306A
:1082C000E56513B994F858301BB1236E04F15000E2
:1082D0009847384604B0BDE8F087013582E7622749
:1082E000F7E71C27F5E700BF08100020FFFF0F008D
:1082F0002DE9FF410F4690461E460546A8B390F86B
:108300003430A3B3B1F5801F33D21B4C0221FEF7EA
:1083100075FF04F56372394628460DF10F03FFF728
:1083200052FB024678B10123424600933946334658
:108330002846FFF749FF0446E86B26F0E7FA204697
:1083400004B0BDE8F0819DF80F30012BEBD1D4F8DB
:108350009C138E42E7D1009341463346284623F0D2
:1083600095F804460028DED1E6E72124E7E711244A
:10837000E5E72924E3E700BF0810002070B586B0C8
:108380000E4605460392A0B390F834309BB3B1F586
:10839000801F32D20221FEF731FF31462846184AAB
:1083A0000DF11703FFF70FFB044618B99DF81730BE
:1083B000032B0ED10223314600932846CC2303AA77
:1083C000FFF702FF0446E86B26F0A0FA204606B04D
:1083D00070BD022B0BD10A492846FEF76CFF0399AA
:1083E00002468142EFD0284626F0A6F9EAE761244A
:1083F000E9E72124EAE71124E8E72924E6E700BFBA
:108400009413002030B50C46054685B028B390F88B
:10841000343023B3B1F5801F23D20221FEF7EEFEE4
:108420000DF10F03214628460F4AFFF7CCFA034609
:1084300088B99DF80F20032A0DD00322214600920F
:1084400002462846FFF7C0FE0446E86B26F05EFAB7
:10845000204605B030BD2D24F7E72124F8E711248C
:10846000F6E72924F4E700BF941300202DE9F34137
:10847000089C032A1746266806D1237A012B25D0AB
:10848000012002B0BDE8F081DFF8988030460DF1A0
:10849000070308F56E72FFF796FA60600028ECD1CA
:1084A0002568D8F8BC33A96AD5F844C04B40CCF154
:1084B00000021340207AE0D1012809D1E068D8F801
:1084C000C82302447069824202D92374207CD8E711
:1084D0002868EB6A1B1A081AB3FBFCF3B0FBFCF02C
:1084E00083420BD1706CF36A421E1340326B121A36
:1084F000134428463363FFF714F8E862D8F8C8231A
:10850000E36808321344E36001223B4604492068D3
:10851000FFF7DCFB60600028AFD00020B1E700BFB0
:10852000C013002008100020032A2DE9F34106465D
:108530000D4617461C4606D1237A012B24D0012074
:1085400002B0BDE8F081DFF8608009680DF1070333
:1085500008F56E72FFF737FA60600028ECD19DF8DD
:108560000720237A032AE7D0D8F8BC136A6891421F
:10857000E2D1012B2969D4F80CC007D172690CEB48
:108580000103934202D92074207CD9E70831614469
:10859000E1603B46012229463046FFF797FB6060C9
:1085A0000028C9D00020CBE708100020F0B5044611
:1085B0000D46466CE36B006887B005225B6901A934
:1085C00006FB0500984701A8FEF767FF012804D8BD
:1085D00001A8FEF73AFF07B0F0BD29462046FEF796
:1085E00081FF0646676C2068E36B05225B6901A981
:1085F00007FB0600984701A8FEF727FF431CEAD0B7
:10860000B54238BF0130E6E72DE9F043064699460A
:1086100089B0036908460F469046984704460028EB
:1086200067D1D9F804305B0A012B22464FEA530385
:1086300004F10104F8D899F8035099F802302D0399
:10864000DB0203F4006305F480551D43B9F80030E4
:108650004FF00009C3F30A0352032B4492B29D1852
:10866000294B0DF107001B2228F0784402A903933F
:1086700002948DF80790FEF700FE9DF807306FEA30
:10868000054544EAC36404946FEA08041B2224F0FD
:10869000784402A902948DF80790FEF7EEFD9DF84C
:1086A00007306FEA154544EAC3644FF0FF330122F7
:1086B0000594069307A9B369079507F11000984739
:1086C00001220446B36905A907F108009847012271
:1086D000484518BF0446B36904A9381D98470122CC
:1086E000484518BF0446B369384603A9984728B1DE
:1086F000044639463046FDF7B4FF01E0002CF8D1BE
:10870000204609B0BDE8F08301009AB238B50446AE
:10871000456C006804F1400305FB0101E06BFFF7C5
:1087200073FF05462046FFF7B1FA284638BD2DE90C
:10873000F04F4FF0FF334FF6FF720025044600F173
:108740000808C0E909238BB0C3620562056340468F
:108750008B46FDF7B4FE2046FFF798FA50BB4FF664
:10876000FF79676A00264F4514BF3D460025E3693F
:108770009E4248D32046FFF789FA18BB5E200BB013
:10878000BDE8F08F2368E26B606C566900FB053032
:10879000052205A9B04705A8FEF77FFE012828D1CC
:1087A00029462046FFF702FF421C29462046FFF7D4
:1087B000ADFF0135E3699D42E4D32046FFF766FA39
:1087C0000028CCD000254FF0FF394FF6FF734F46FD
:1087D0002E46C4E90853E3699E423ED3A5EB090542
:1087E000012D5BD84FF6FF72636A934268D1672010
:1087F000C5E70338C0B20128DBD829462046FFF779
:10880000D5FE0246D1E7E26B2368606CD2F814C053
:1088100000FB0530052205A9E04705A8FEF73DFE4F
:10882000022807D04F450DD10BF101022946204601
:10883000FFF76CFFE3690135B5FBF3F2013603FB8B
:10884000125594E729462046FFF7B0FEB0F1FF3FEE
:1088500014BF02465A460132E8E7E26B2368606CB7
:10886000D2F814C000FB0630052205A9E04705A890
:10887000FEF713FE01280FD805A8FEF7E6FDB84263
:1088800038BF6662814528BF8146854238BF0546AC
:108890000746236A0133236201369CE74FF6FF73D4
:1088A00000256362E3699D429CD2666C2068E36B9D
:1088B00006FB050005225B6905A998470135F1E72C
:1088C000E26B666C206855696946052206FB030069
:1088D000A847626A616C23684A4D01FB0233143376
:1088E000A3624FF0FF336FF00101E362204605AB56
:1088F00005F56E72FFF767F8002849D1D5F8C05327
:1089000029462046E562FDF7A6FD206320B92046F2
:10891000E16AFEF706FEE06229462046FEF701FE08
:108920000546A36A9D4235D12046FDF767FD002626
:1089300007463546E3699D423ED3B74257D92046A4
:10894000616AFEF7CFFD4FF00008054604F1400ACA
:10895000464512D8626C2368694602FB0539E36B11
:1089600005225B69484698476846FEF76EFD534608
:1089700002464946E06BFFF747FE29462046FEF7D0
:10898000B1FD08F1010847450546E1D16420F6E64E
:10899000A56AB5E729462046FDF75DFD236B29460C
:1089A0000344064623632046FEF7BBFD0546002E22
:1089B000B7D1C4E90B06B4E7626C236805A902FBD2
:1089C0000539E36B05225B694846984705A8FEF721
:1089D00064FD012809D8204609F11401FDF73BFD8B
:1089E000636C143B984208BF01360135A2E740464C
:1089F000FDF765FD002320461946034AFEF730FFC8
:108A00000020BCE6081000202D6600082DE9F84380
:108A10000025DFF890810E46D8F8E4930446C8F8A4
:108A2000E45318B921252846BDE8F88390F834703E
:108A300007B30A6803689A4240F0A9804A6843680D
:108A40009A4240F0A4808A6883689A4240F09F80EE
:108A5000CA68C3689A4240F09A800A6943699A4298
:108A600040F095808A69C36B9A4240F090804B69D0
:108A70008361D8E768223946856B2DF033FA336875
:108A800004F1080023607368A56363603369636160
:108A90007369A361D6E90223C4E90223FDF70FFD40
:108AA000B36904F14000E3639B68984720B9676CA1
:108AB00017B16368B3FBF7F794F84330E761002B15
:108AC000B0D00023656C2366002D68D0002F66D0DF
:108AD0002368B3FBF5F205FB1233002B59D167680D
:108AE000B7FBF5F605FB1676002E52D12046FDF7B2
:108AF000A2FCA369043303449F424CD340F6347272
:108B00006369CC3B934248D8B5F5805F47D30321D6
:108B10002046FEF773FBD4E90001E36B1B6898471E
:108B20000546E36B0220DB6898472DB184F834607A
:108B3000E06B25F0EBFE76E749462046FFF7F7FDB0
:108B40006428054604D149462046FFF7F0FD054656
:108B5000636C143BBDB9226A204602FB03F6FDF7A5
:108B60006AFCA369043303449E4223BF012384F8B3
:108B70003430D8F8E83384F834502ABF01335A250A
:108B8000C8F8E833D4E7002384F83430D0E75D2513
:108B900049E7592547E75A2545E75F2543E75B2520
:108BA00041E700BF08100020014902482EE700BF3E
:108BB0001C440020F8130020044BD3F88420D20674
:108BC000FBD4D3F88400C0F38110704700400050FC
:108BD0004209531E022B96BF074B002303EB82036F
:108BE00000F01F0029B103F58053012282401A6072
:108BF000704703F50053F8E76080005038B5174C14
:108C0000FF28A26A28D8A36D154D13F4803F18BF22
:108C10004FF48031134B18BF99624FF08071996205
:108C2000A36995F92C5023F47F03054423F47F4373
:108C300043EA002385F3080543EA0543A3610A4894
:108C4000FEF73CF8A36DDB0304D54FF480310648F2
:108C5000FEF734F8002038BD2120FCE70040005A20
:108C60000C4400200050005A2840005A38B50F4CE0
:108C70000F48A26AA36D13F4803F18BF4FF48031F0
:108C80000C4B18BF99624FF080719962A569FEF78D
:108C900015F8A36DC5F30725DB0304D54FF4803128
:108CA0000348FEF70BF8284638BD00BF0040005AC5
:108CB0002840005A0050005A014B83F82C0070479E
:108CC0000C440020014B93F92C0070470C44002009
:108CD0004FF4803311481249826A8B62836D03F02E
:108CE0000303032BFAD14FF080730E488B620B4BBA
:108CF000996D30EA0101FBD1012009490865996DA0
:108D00008907FCD4054B996D8807FCD5996D8907B7
:108D1000FCD505490548FDF7D1BF00BF0040005A0A
:108D20000050005A03000100000001012840005AD1
:108D3000164B10B5D3F82831044603F00703013B66
:108D4000052B04D8DFE803F00A161E120E1A0023C2
:108D5000184604B1206001B10B6010BD0C4B1868BF
:108D60000523F6E70A4B18680623F2E72DF09AFE72
:108D70000723EEE7064B58680323EAE7044B5868DD
:108D80000423E6E702230348E3E700BF0080005026
:108D90000C440020002D31010E4BD3F8403103F07C
:108DA0000303022B0DD0032B0FD0012B0BBF0A2383
:108DB00001234FF40042002200B1026001B10B60B8
:108DC000704709234FF40042F6E70C234FF47A7200
:108DD000F2E700BF00800050002337B50193154B28
:108DE0000546D3F860320C4603F00703013B032B22
:108DF0001ED8DFE803F0020E1914002101A8FDF7C8
:108E000043FC10230DB1019A2A6004B1236003B022
:108E100030BD002101A8FFF7BFFF1123F2E72DF0BD
:108E200041FE07230190EDE7034B01930223E9E79D
:108E30000023E7E700800050002D3101002337B503
:108E40000193154B0546D3F894320C4603F0070303
:108E5000013B032B1ED8DFE803F0020E191400219A
:108E600001A8FDF711FC10230DB1019A2A6004B18D
:108E7000236003B030BD002101A8FFF78DFF11234F
:108E8000F2E72DF00FFE07230190EDE7034B01936E
:108E90000223E9E70023E7E700800050002D3101BD
:108EA0004FF48032104B10B59A66A3F580531B6FB8
:108EB000C3F3033303FB00000C4BDC69144041F6A1
:108EC0007132DA635A6822F4401259B9084988426B
:108ED00094BF00200120000502435A600CB100221B
:108EE000DA6310BD0349F2E7009000500000035020
:108EF000005A6202002D3101124B10B5D3F808322E
:108F0000044603F00703042B17D8DFE803F0031926
:108F1000090D1100012204B1236001B10A6010BDE6
:108F200009224FF40043F6E70C224FF47A73F2E77C
:108F30002DF024FE0F22830AEDE700221346EAE714
:108F40000A22EEE7008000501FB50023B0F5807FB5
:108F5000019300F056816AD8002800F0F98020388B
:108F6000602876D8602874D8DFE810F0F20000019D
:108F7000F200000121012101210121012101000153
:108F800033017E005C01B0007E00000100010001A1
:108F90007300730073007300730073007300730039
:108FA000000100010001D200710100017300730093
:108FB0007300730073007300730073007300730019
:108FC000730073007D012101F200F200F2006C01D8
:108FD0007E007E00DE00810195002E01730073008B
:108FE000730073007300E900F20073002101210196
:108FF0002101210121012E012E0100017300000138
:10900000000173007300730073007300730073003A
:1090100073007300730073007300730073007300B8
:10902000730073007300730073007300EE00B0F5FB
:10903000E06F00F00C815BD8B0F5607F00F09D80A0
:109040001DD8B0F5007F00F0868006D8B0F5C07F4F
:109050007ED0019805B05DF804FBB0F5207F00F0EC
:109060008580B0F5407FF4D12DF088FD934B1B6FC8
:10907000C3F380230133B0FBF3F0400866E0B0F5A2
:10908000B06F00F0A6801AD8B0F5806F00F08F8026
:10909000B0F5A06FDDD10021884B0391D3F82032C9
:1090A00003F00703042B08D8022B00F28980012B60
:1090B00000F08280022B00F09E80039BABE0B0F5B5
:1090C000C06F00F0AF80B0F5D06FC2D17B4BD3F84A
:1090D000003203F00700032800F0AF805B0700F1C7
:1090E000A680013801288CBF00200120C0032DE09C
:1090F000B0F5186F00F0B7800ED8B0F5086F00F02B
:10910000C780B0F5106F00F09D80B0F5F06FA0D172
:109110006A4BD3F860319DE0B0F5286F00F0A7806E
:1091200007D8B0F5206F94D1002101A8FFF754FEB5
:109130008FE7B0F5406F47D0B0F5486F89D1002177
:1091400001A8FFF77BFE84E72DF0FAFC019080E791
:109150002DF014FDFAE72DF0F3FC584BD3F89030C6
:10916000C3F304630133B0FBF3F0EFE72DF006FD2A
:10917000524B1B6FC3F38023F4E75049D1F8802092
:1091800002F00302022A0AD0032A0BD0012A0CD1D2
:109190002DF0D6FCD1F88030C3F30113E2E72DF0B7
:1091A00081FCF7E7464B1868F4E71846F2E7002120
:1091B00001A8FDF769FA4CE703A8FFF7B9FD7CE7C2
:1091C0004FF40043039378E7002101A8FFF7B0FDB7
:1091D0003FE70021394B0391D3F8803103F00303BB
:1091E000022B0CD0032B06D0012B7FF466AF03A813
:1091F000FDF74AFA61E72DF055FC03905DE7314B2E
:10920000E0E702934FF0E0231B695A0705D52DF0E4
:10921000B5FC0290029B01931BE703A902A8FFF78C
:10922000BBFDF7E7002101A8FFF7B6FD11E7042811
:1092300006D12DF0A3FC800A88E74FF47A7085E709
:10924000002083E7002101A8FFF756FE01E71B4B32
:10925000D3F8403203F00303032B16D0003B18BFB2
:109260000123DB03D7E7154BD3F85032F2E7002197
:10927000124B0391D3F8703203F00303012B7FF4F8
:109280001CAF03A8FFF788FD17E74FF47A73C2E716
:109290000A4BD3F8003103F00303022B06D0032B53
:1092A00007D0012B07D1064B5B68B4E74FF40043AE
:1092B000B1E7054BAFE70023ADE700BF00800050EA
:1092C0000C440020002D310180D5430270B5A84820
:1092D00088B0A84C2FF06CFAA7482FF069FA6368A1
:1092E0001BB1636DC3F30B03FAE7042522F0A8F961
:1092F000A24AA34B41F202011D6115611D61156176
:109300001D6115611D612023156123610023E36048
:10931000A36061614FF4A0219A4EA361A3656162CD
:10932000E3612362A362E36263632365D66423631C
:109330002269572022F0870242F0810222612269CD
:1093400022F0F80242F080022261E26822F0F0424C
:1093500022F47022E260A26822F0030242F00102CD
:10936000A260A268A260A26842F48062A260626AFF
:1093700022F4772222F4EE6242F480226262626971
:1093800022F00F0242F002026261A361FFF7DCFDEE
:10939000A36813F0010F636800F0FC807A4DB0FB06
:1093A000F5F5D80705F1FF354FEA05651ED5714B78
:1093B0005A6D12F0280FFBD19A6C910740F0D480BF
:1093C0009A6CD20700F1D2809B6C13F0020F14BF8D
:1093D0000624002422F034F9664A2046136923F05B
:1093E0007F432B43136122F04BF904E0236923F000
:1093F0007F432B432361052022F042F95D4B9A6C99
:10940000D24312F44054FAD140F202330122042133
:109410006846ADF80030FDF75FFD40F202232246BA
:10942000012101A8ADF80430FDF756FD4FF481731A
:109430004FF4E0640122042102A8ADF80830FDF7E2
:109440004BFD0421012203A8ADF80C40FDF744FDBB
:109450004E4B4F4A4FF44870C3F8C8244FF00212E5
:10946000C3F8C42402F58032C3F8CC241C22C3F80C
:10947000B42405F054F807A8ADF81C40FDF7D6FD5C
:10948000142005F04CF807A8ADF81C40FDF7A0FD2E
:10949000232005F044F807A8ADF81C40FDF7C6FDF1
:1094A000344CA36C5A06FCD5B9236364A36C1B0629
:1094B000FCD54FF4E06507A8E36BADF81C50FDF751
:1094C00087FD002240F20233114604A8ADF81030A7
:1094D000FDF702FD002240F20223114605A8ADF877
:1094E0001430FDF7F9FC4FF481730122002106A826
:1094F000ADF81830FDF7F0FC0122002107A8ADF807
:109500001C50FDF7E9FC22F09BF804231B4A1C4980
:1095100019480B6113610B6113610B6113610B61DE
:10952000136120230021236141F20203E160A16065
:1095300063614FF4A023A161A1656362134BE161F4
:109540002162A162E16261632165D6642163C3F88F
:10955000B414C3F8C814C3F8C414C3F8CC1408B0C6
:10956000BDE870402EF034BF052433E7092431E70D
:10957000E891030800C00850EC91030800E008508F
:1095800000D00850FF3F0D03E070720000C0035090
:1095900002000100A36D174A13F0010F164B08BF1C
:1095A0001A46164B9B6803F0E003402B1DD005D8EC
:1095B000EBB1202B7FF41FAF082505E0602B03D013
:1095C000802B7FF418AF012555434001B0FBF5F027
:1095D0000B4A2038094B02EAC002596DC807FCD477
:1095E0001A635A6DD107FCD405E70625ECE7102570
:1095F000EAE700BFC0E1E400E070720000C008507C
:10960000F8FF7F0008B58020FFF79EFC034B9842CF
:109610009EBF4FF48032024B1A6708BD005A6202A7
:1096200000A0005070B5704C022025F0ABF9256FFA
:109630006E4BC5F3802500216A1C6D4883F85824C1
:10964000FFF72EFC4FF48032236F43F480632367CF
:10965000684B1A67236F23F0070343F00303236764
:109660002DF08CFA0646FFF7A7FA0128D4BF012196
:1096700000213046FFF714FC002025F0B7F9236FD6
:1096800023F4806343EA85232367FFF7BBFF236F3F
:10969000584923F474432367574BD3F8FC2012F046
:1096A000807240F08880D4F8803023F0030343F0C8
:1096B0000103C4F88030C1F880204B4B4FF4803157
:1096C000D3F820214D4822F0070242F00202C3F8ED
:1096D0002021D3F8282122F0070242F00202C3F829
:1096E0002821D3F8802122F0030242F00102C3F8BE
:1096F0008021D3F8402122F0030242F00202C3F895
:109700004021D3F8602122F0030242F00202C3F8A4
:109710006021D3F8402222F0030242F00202C3F893
:109720004022D3F8002222F0070242F00202C3F8DE
:109730000022D3F8082222F0070242F00202C3F806
:109740000822D3F8502222F0030242F00202C3F8AA
:109750005022D3F8702222F0030242F00102C3F833
:109760007022D3F8202222F0070242F00102C3F84F
:109770002022204A5C6E5166426A22F00102426257
:10978000E2035CBF1E4A51664FF0E0210A6942F0D5
:1097900004020A61D3F8602222F0070242F00102BB
:1097A000C3F86022D3F8942222F0070242F00102AB
:1097B000C3F8942270BDD3F8FC2022F08072C3F865
:1097C000FC20D4F8802022F0030242F00102C4F809
:1097D00080200022C1F88020D3F8FC2042F0807263
:1097E000C3F8FC2069E700BF00800050081000208B
:1097F00000B4C4040090005000ED00E000000850E8
:1098000000A0005070474FF00042104B70B55D6EE5
:1098100003F580535A664AF6CD3304460C4980203E
:109820004E6C0B64FCF766FF0B6A23F4F85343EAB3
:1098300004230B62F30744BF064B0B64002DA2BF49
:109840004FF00042044B5A6670BD00BF00800050CC
:10985000008009503254FFFF00A000502DE9F04174
:1098600005460F461E4690464AB101233022194C48
:109870008B4002FB004436B304F5825423600F2171
:10988000072F05EB450388BFA7F108044FEA031330
:10989000114895BFBC00A40004330C3308FA04F24D
:1098A000A1401844FDF70AFAB8F1000F09D10123CD
:1098B0003021084ABB4001FB05223EB102F582522D
:1098C0001360BDE8F08104F50154D7E702F50152B9
:1098D000F6E700BF00C0035030C0035010B5044687
:1098E000D0F8A42093695906FCD5002394F8AD1054
:1098F0001A4694F8AC00FFF7B1FF002394F8AF10BC
:109900001A4694F8AE00FFF7A9FF94F8B430DA07CE
:1099100007D5002394F8B1101A4694F8B000FFF769
:109920009DFF94F8B4309B0707D5002394F8B3103B
:109930001A4694F8B200FFF791FF0122D4F8A43040
:1099400003F5005003F58051C2644A600A21596151
:10995000002159614260D4F8A800FFF739F90846A0
:1099600010BD0123F0B5C4B2204DA340D1F800C012
:109970008F7ACC7A0E7B2B65850005F1A04505F525
:109980008825C5F804C030256843240591F80DC02A
:1099900044EA074400F1A04000F5802044EA465420
:1099A00022F00302C0F860C0C4650267EFF31184BF
:1099B00085F311880E4A087A536500B11364487A1A
:1099C00000B1936308798A7942EA004207488261CC
:1099D0004D79CA79064942EA05428A61054A4363DC
:1099E000936484F31188BFF36F8FF0BD002004509F
:1099F00000100450000004500123C0B28340EFF374
:109A00001180302282F31188054A516D21EA030149
:109A10005165936280F31188BFF36F8F704700BF69
:109A2000000004500123C0B28340EFF311813022C3
:109A300082F31188074AD06A184209D1526B9343C6
:109A40000CBF0120002081F31188BFF36F8F704796
:109A50000020F8E70000045070B594002246054647
:109A60000E462EF0BDFE431C0AD058B922463146A0
:109A700028462CF0F4FF002814BF3D20002070BDC4
:109A80006E20FCE77120FAE741F671320121064BA6
:109A9000DA6303F50052D1600022DA634FF48032BA
:109AA000A3F518339A66704700000350ECE71143A2
:109AB00021F0F8014904044B490C41F440210630DF
:109AC00043F82010704700BF00800350021E30B5DD
:109AD0004FF000000CBF1025042547F60774084915
:109AE00052B9831D51F82330234023B10130854200
:109AF000F6D14FF0FF3030BD00F11603F2E700BFA2
:109B0000008003503AB122F0030202F1A04202F5B4
:109B1000603209B9106070470002FBE74FF48032F1
:109B2000084B5A6603F5EE239B69C3F3461203F014
:109B30000F010A434280C3F30342C3F3033342706D
:109B4000037070470090005013B5044601A8FFF75A
:109B5000E5FFBDF80630012223804FF4807300201A
:109B60006380054B9B680A3303F01F0302FA03F37B
:109B7000636002B010BD00BF0080E00F054B9A6823
:109B80009107FCD45A689207F9D4DA69002AF6D111
:109B9000704700BF00C00A500020704747F6FF73AF
:109BA0009A42F0B56FD002296FD8394B0B441B7C19
:109BB000012B6AD8374DDE0005EBC30393F85C0434
:109BC00093F85E14012815D1002593F85F04401A1C
:109BD000854202D30844C0B2F0BD441BD3F8606490
:109BE000A0EB540436F914609642D4BF254604F124
:109BF000FF30EDE7D3F860040028EDD0B0F9004065
:109C0000A24204DCB0F902409442B8BF14468388F3
:109C10003544FF2B19BFC8232827B0F90630B0F907
:109C20000870A3EB04030CBF0122002293FBF7F39F
:109C300095F85D6413441BB29E4201DD002B01DAEE
:109C4000731E1BB24FF47A7C00EBC305EA88AD6843
:109C50005F1C14FB02521D4622EAE2723BB25C32E8
:109C60009E42B2FBFCF204DD00EBC307BF88BA42A0
:109C7000EAD900EBC5039888904228BF1046884275
:109C800038BF0846A7E7FF20A6E70020A4E700BFEB
:109C9000E0910308081000200229F0B55CD82F4B92
:109CA0000B44197C012957D82D4B03EBC10393F8C2
:109CB0005C04D3F86014012811D193F85F0493F881
:109CC0005E44904294BFC4EB0003C4EB0203001B4C
:109CD000DBB28342C8BF002331F91300F0BD002975
:109CE0003AD093F85E04904202D3B1F90200F5E74E
:109CF00093F85F44B1F900009442EFD993F85D44C2
:109D00008B88013CA3F1FF06734201F10405E4B224
:109D1000734101F10C07DEB2B44216D805EBC30360
:109D20004FF47A756A43B3F902405B68D21A04EBC8
:109D3000D47302EB630292FBF4F29042CEDBB1F9F2
:109D400002009042CADC10B2C8E737F833C05E1C8C
:109D50009445E3D33346DEE70248BFE7E0910308CA
:109D6000081000200080FFFF2CF0A2B90023F7B5F7
:109D70000B600368054603F070430B60C2680C4635
:109D8000032A00F28180012A6ED812B143F00063E9
:109D90002360D5E90223900102F0407167D5B1F14B
:109DA000407F67D0002B6FD04FF00072236823F004
:109DB000407313432360EA68022A07D12A69032A01
:109DC00062D823F47F0343EA02432360EB68032B4A
:109DD00003D12B69F62B57D9A370AB681A0442BF85
:109DE000236843F400432360EB68032B09D0236806
:109DF0002A6823F4FF4323F07F03C2F30E021343C8
:109E000023602B68AE68002B06F480573EDB16F407
:109E1000E84F39D12B6806F4806603F0704303F1F4
:109E20000043B3F1804F04D21EB1236843F4806332
:109E300023600023284601A9019321F0ADF988B9D8
:109E40002B6813F0704139D12368019A23F4FF4342
:109E500023F07F03C2F30E021343236017B1EB69B3
:109E600093B10F2003B0F0BD43F0806390E7B1F1F0
:109E7000407F03D143B14FF0407297E702F0807208
:109E8000002B93D1002A91D02120EBE7730406F434
:109E900000520CD4002AF7D0236843F40053236007
:109EA000002FB7D0236843F480532360B2E72368C0
:109EB00043F480432360002AF2D0EDE703F05043DF
:109EC000B3F1004F05D0B1F1304F02D0B1F1404FA6
:109ED000DAD1019B2268013B03F07F0322F07F026D
:109EE00013432360002FBDD0EA69002ACCD0B1F122
:109EF000004FB6D1117F61B1002EB3D043F400738F
:109F00002360537F002BADD0236843F4807323601C
:109F1000A8E7537F002BA5D0002EA3D0F4E70123A0
:109F20004B60C368013B012B08D88269054B1AB10D
:109F30000A6000208B607047034AF9E74FF0005336
:109F4000F7E700BF08000020F4910308012373B570
:109F5000C56806469D420C464B6016D8002301A9F1
:109F6000019321F087F970B9019B05B11C33726927
:109F70009A4207D332696AB1226043F0005300204D
:109F8000A36000E01D2002B070BD023D012D01D88C
:109F90000023F4E72120F6E7436813B941607047D6
:109FA0005B685A68012AFBD1596070472DE9F04F70
:109FB000A9B0CDE9032180461D4604460822339FFF
:109FC00028FA02F383EA08039E0702F1080218BF89
:109FD0009B00202A1C44F3D1DFF8F4A1E4B29AF8E4
:109FE000743404F5062404F55064002B38D1FEF7D0
:109FF000DBFD8146002870D10146402208A82BF0E5
:10A0000071FF4022494618A82BF06CFF6D4E0AF5EF
:10A010007C73059306F10F0A102208A93346CDE997
:10A0200000A90598FDF760FC0022834608A95A455F
:10A0300040D101231022CDE900A36348334618A97B
:10A04000FDF752FC002283460DF1600A5A4549D1C2
:10A050005E4B10369E42DDD101225D4B83F87424A5
:10A060004FF480790026DFF868B1A4F50623A3F544
:10A07000506252090BEB8202D2F8E80204F01F0191
:10A08000C840C00746D4D2F80823CA40D20733D507
:10A09000A3F6FF43DBB2002E08BF264603F50624D5
:10A0A000B9F1010904F55064DFD1039B33B32EB33A
:10A0B00034462BE051F8040B07920691FCF772FB33
:10A0C000DDE9061201300BD10022414B83F87424E4
:10A0D0003F4B93F87434002BC2D16FF091000FE026
:10A0E0000132A4E75AF8040B0692FCF77FFB01301B
:10A0F000EED0069A0132A9E7039B23B96FF08B00DB
:10A1000029B0BDE8F08F002E18BF3446349B0020E4
:10A110001C60F5E7329B13B10023329A13600FB134
:10A1200000233B604FF0100A00232A4621462648B0
:10A13000CDF800A0FDF7ECFC002831D1329A254B78
:10A14000BAB92A689A4205D021461F48FEF75AF943
:10A150000028D3D1D5E9022304998B4208BF424598
:10A1600027D0A4F50624A4F6FF44E4B204F506249F
:10A1700096E7329AC2F800A02A689A42E4D1002FEA
:10A18000E8D03B462146104818AAFDF709FD38B92A
:10A19000329A3B68126893429FD39B1A3B60D9E77F
:10A1A0000D4B9842D0D06328CED00C4B9842D1D0E2
:10A1B00093E7039B002BA9D06B68012BA6D16FF00E
:10A1C00084009DE7006D0800F8130020006E080071
:10A1D00008100020105D175EFFDF00F0FEDF00F0CA
:10A1E00070B58CB006460D4614460021102208A812
:10A1F0002BF078FE002205AB029307AB019306AB70
:10A2000000933046294608ABCDE90622FFF7CEFE83
:10A2100018B9099B6360079B23600CB070BD70B5D3
:10A220008CB00C4605461022002108A82BF05AFEDF
:10A23000002205AB029307AB019306AB21460093C6
:10A24000284608ABCDE90622FFF7B0FE044630BB36
:10A25000099B012B26D0059E154D314605F57C70D6
:10A26000FEF7D0F808BBA6F50623A3F55063B3F5B7
:10A27000807F06F01F0110D85B09082B0DD001224A
:10A2800005EB8305D5F8E8328A4053403046C5F8DF
:10A29000E832FCF7ABFA013001D16FF086042046BA
:10A2A0000CB070BD6FF08404F9E76FF09104F6E72D
:10A2B00008100020F0B5164600221C4643688DB0F9
:10A2C0001B0A07460D46009204D0012B36D06FF0D2
:10A2D0008B006DE0224631460096FCF749FB0028D2
:10A2E00066D1F31CC4E9030523F003036361002E68
:10A2F00000F097802022002101A82BF0F3FD3146C9
:10A30000384601AAFCF734FB002840F08A80236815
:10A31000019A9A4240F085806368029A9A4240F01E
:10A320008080A368039A9A427BD1A369079A9A42D4
:10A3300077D1E369089A9A423AD072E0032E75D930
:10A340000B78012B7CD14978002941D0F7390829B5
:10A35000BDD801A353F821F0B5A300087DA30008E0
:10A36000CFA2000885A30008CFA20008CDA3000853
:10A37000CFA20008BFA30008C7A30008F8254FF428
:10A3800010561EE0FA254FF0807610271C2200217F
:10A3900002A82BF0A7FD0323CDE90435019703960E
:10A3A00001AD0FCD0FC495E80F0084E80F00002029
:10A3B0000DB0F0BDF7254FF000762027E6E7FE252B
:10A3C000214E224FE2E7FF25214EFAE7FC25D6E792
:10A3D0002B2E2BD9202220462BF084FD05F11003D3
:10A3E0002361AB070DD001AB05F1280C1A46286894
:10A3F0006968083503C265451346F7D1286801AD81
:10A4000010606B6869462360AB6820466360EB6848
:10A41000A6F11005A36001236561E36020F0BCFE96
:10A4200038B12022002120462BF05CFD6FF0860021
:10A43000BEE7009E06F11C039D42BFF458AFF0E753
:10A440006FF09100B4E700BF0044000220000080DC
:10A45000004400032DE9F04FA5B08046DDE92E9BB6
:10A460008A4615461E46002B00F0BD80B9F1000F4C
:10A4700000F0B980002900F0B680002A00F0B38017
:10A480000021D300309ACBF8001012A813602022CC
:10A490002BF028FD2946404612AAFCF769FA04462B
:10A4A000E0B90AAF0DF1480CBCE80F000FC79CE8FB
:10A4B0000F0087E80F00EB1C23F00303282221463E
:10A4C0001AA80F93CDE90D4A2BF00CFDD8F80430F3
:10A4D0001B0A07D0012B13D06FF08B04204625B048
:10A4E000BDE8F08FA945C0F0818032464B461AA8DE
:10A4F000CDE916232EF07DF858B16FF09204EDE708
:10A5000005F12C03994571D306F1100205F11C03E6
:10A51000EDE712A90AA820F067FE18B9159B013BC8
:10A52000012B07D96FF092041AA82EF062F80028C8
:10A53000D4D0E2E74FF080731C90CDE91A3022901E
:10A5400007A912A8FFF712FC0028EBD107991AA857
:10A550002EF056F801A90AA8FFF7F8FC0028E1D16F
:10A5600001A91AA8FFF718FD04A912A8FFF7D7FC44
:10A570000028D7D11AA8FFF70FFD07A912A8FFF7E7
:10A58000E5FC0028CED107A91AA82EF042F82CF03D
:10A5900013FB0028C6D1B9F12B0F2AD90123338030
:10A5A000129B70807360139BB360149BF360D8F8A8
:10A5B0000430CBF800001B0A04D0012B11D06FF03F
:10A5C0008504B1E7B8F8003023F0FF02B2F5824FFE
:10A5D00004D1413BDBB2012B00D90135CBF800504F
:10A5E000A2E72C35FAE76FF0860477E76FF08C046A
:10A5F00074E76FF0890471E70028ACBF00F1604098
:10A60000064B4FEA0111C9B2ABBF00F5614000F043
:10A610000F0080F800131954704700BF14ED00E0DC
:10A62000002807DB01234109034A00F01F00834093
:10A6300042F82130704700BF00E100E008B52B4B25
:10A6400083F30A884FF48041294A2A4B9360D2F859
:10A65000883043F47003C2F88830274B99664FF076
:10A66000FF31264B19666FF4003159660D2199664A
:10A670000221C2F8D010BFF34F8FBFF36F8F0121BB
:10A680004FF44034A2F54062C2F880110020DC6033
:10A69000FFF7C6FF1A4B1B481C611B4BC01A8010EA
:10A6A00020F0A8FF194B1A498B4212D30020194BF6
:10A6B00019498B4218D308F065FD186850F82240FC
:10A6C000586840F82240013298688242F5D30C3332
:10A6D000EAE70022F8E71C6844F8220001325C68CF
:10A6E000A242F8D30833E4E70022F8E7080000208C
:10A6F00000ED00E0006000080090005000A0004461
:10A7000000800044C4620008B4610008F01304082B
:10A71000FC130408FC130408FC13040808B5EFF349
:10A72000108072B6034BD3F878342DF04EFF1846E4
:10A7300008BD00BF081000202DE9F041046805465F
:10A7400094F89420002A63D1EFF31183302181F330
:10A750001188C4E9162283F31188BFF36F8FFFF7C6
:10A76000DDFF854202D1104624F0C6F8236E2A4F41
:10A7700093F910603046FCF7A1FB3046FCF766F811
:10A78000236E93F911603046FCF798FB3046FCF7D6
:10A790005DF897F82C33207D43B1072806D807EBE6
:10A7A000001393F874310BB1FFF726F9207D24F0E4
:10A7B00077F8EFF31188302383F311880023174AC9
:10A7C000167BAEB90133082B02F11002F8D1232019
:10A7D000FCF73CF8FF22124B31465E6520209A625E
:10A7E0005E60FEF7F5F92120FEF7F2F987F82C6399
:10A7F00088F31188BFF36F8F0023C5E90033C5E9E3
:10A800000533EB60236E2046BDE8F041DB68184756
:10A810000F20BDE8F08100BF08100020701100205B
:10A820000000045010B510B9FFF778FF28B1436855
:10A830001BB1BDE8104000681847232010BD07B5C4
:10A8400001228DF807100DF10701FFF7EBFF03B0B0
:10A850005DF804FB0B4601461846F0E710B50446C8
:10A8600020F0FEFA28B1006818B12146BDE810407A
:10A87000E5E710BD302337B5007D0DF107014343F7
:10A8800003F1A04303F58023DD6E1C6F2DF082FEE3
:10A890009DF8070040B9054B9D4203D184F00204A6
:10A8A000C4F3400003B030BD0120FBE735130020A6
:10A8B0003021037D02464B4303F1A04303F580237F
:10A8C000D86E07491B6F884208D113F0020006D0EA
:10A8D000106A136D1B1A5842584170470020704788
:10A8E000351300202DE9F84F90F8943004460D46BA
:10A8F0001646002B40F08E8090F89970EFF3118887
:10A90000302282F3118890F895206AB190F898204F
:10A9100052B180F89530EFF3108972B601202DF016
:10A92000E3FD48462DF051FE88F31188BFF36F8F89
:10A930004FF030082E44AE4205D1236E012120464F
:10A940009B68984754E094F89A30002B3ED0207DC5
:10A95000FCF79AFB2046FFF7ABFF0146207DFCF792
:10A96000B5FB99BBEFF3118988F31188207DFCF7C3
:10A970008BFB2046FCF727F9D4F848A0411E51452F
:10A9800038BFE16C94F854B038BF01F1FF31207D3D
:10A9900038BF5144FCF79AFBBBF1000F12D10B46B4
:10A9A000D4F89C0098420BD013F80129112A01D049
:10A9B000132A20D1A2F111035A425A4184F8A0204F
:10A9C000C4F89C1089F31188BFF36F8F94F8A030FE
:10A9D000002BB0D0236EA9462A785B6897B9236E06
:10A9E00020465B6899F80010013598470028A2D0EE
:10A9F0000020BDE8F88F9A4582BFE36C03F1FF3376
:10AA00005344CFE70A2AEAD10D212046984700286F
:10AA1000E5D0EDE70E20ECE72DE9F04F044685B0D8
:10AA2000007D04F13806FCF72FFB00211022304690
:10AA30002BF058FA4FF0300B4FF44473DFF80CA1B1
:10AA4000207DDFF80C910AF22D3763870BFB009312
:10AA5000C4E90F77DB6EBB4204D105B0BDE8F04F0F
:10AA6000FCF734BB0DF10F012DF094FD9DF80F7034
:10AA7000002F62D12046FCF7A6F89AF82C238046D6
:10AA8000237DEAB1072B1BD80AEB031A9AF874212D
:10AA9000B2B1EFF311818BF31188D9F834000BFBBD
:10AAA0000399D9F8642081F31188BFF36F8F0121D6
:10AAB00001FA03F3034204BFC2F30A135F183D46D1
:10AAC00004F11807102200213846D4F810902BF01A
:10AAD00009FA3022237D013D5343C5F30A052D01B8
:10AAE00045F04075C4E9065903F1A043C4F820803D
:10AAF00003F580231A6F94F82410520862F3410181
:10AB000084F82410196F94F8242027F0030761F3C8
:10AB1000000284F824201B6F626A9B0863F39F0283
:10AB200047F00207626267640094207D3246214646
:10AB3000054B23F0D7FF207D8FE794F844306FF367
:10AB4000410384F84430EFE785AD00080810002089
:10AB5000000004502DE9F04F9B460023044689B0C5
:10AB600005910392CBF80030DBF80050039B5E1B8D
:10AB700000F0A180059B5D1900F09D80207DFCF711
:10AB800083FA2046FFF794FE8146207DFCF79EFA6B
:10AB9000B9F1000F40F08F802046FCF714F8216DCA
:10ABA00094F89A8088429CBFD4E91203C018401AD6
:10ABB000864228BF0646B8F1000F00F0AC80EFF3E4
:10ABC00011830493302383F311883746D4F850A0BF
:10ABD0002046FFF74FFE0AEB06029245D4F89C1080
:10ABE00072D1D4E912231344994208BFC4F89C20BF
:10ABF000049B83F31188BFF36F8F8046207DFCF7A1
:10AC000043FA0DF11F01207D2DF0C4FC2046FBF717
:10AC1000DAFFD4F850A08146504540F28A80A36CF8
:10AC2000B5B29A457DD123691022049304F128031B
:10AC3000002118462BF056F93021049A013DC4E951
:10AC40000B2A227DC5F30A054A432D0120F0030398
:10AC500002F1A04245F0407543F0020302F5802264
:10AC6000A5621367236DD4E9121233440A44934258
:10AC700008BF0B464B45236505D10123204684F8C8
:10AC80005430FFF7C9FE207DFCF720FA94F89A3083
:10AC90003BB1B8F1000F04D0236E112120465B6850
:10ACA0009847DBF8003037B1039A3B449342CBF826
:10ACB0000030FFF459AFDBF80030002B14BF002048
:10ACC0001B2009B0BDE8F08F0AF1010A0AF1FF3339
:10ACD000994210D1C4F89CA01AF8013C112B01D064
:10ACE000132B14D1013FA3F111014B424B41C1463B
:10ACF00084F8A03071E71AF8013C03F0FD01112936
:10AD000006D1013FB9F1000F3FF467AFEBE7C14651
:10AD100005F8013B61E7324628462BF0B0FE374686
:10AD20006CE7238DC3F30A12154465F30E132385D4
:10AD300098E79DF81F30207D93B93023434303F1FA
:10AD4000A04303F58023596E5A6EC1F30A1122F411
:10AD5000FF42314422F0700242EA01125A6681E752
:10AD6000CDE900644A462369216823F053FE30226E
:10AD7000237D534303F1A04303F580235A6E22F44D
:10AD80008012EBE792F8543037B5144633B1936D27
:10AD90000BB1D06D9847002384F8543094F89A3062
:10ADA0001BB32046FFF766FDF8B1236E1321204642
:10ADB0005B6898471025236E20461B680DF107013C
:10ADC000984778B99DF8073003F0FD02112A05D1A4
:10ADD000A3F111025342534184F8A030013D15F014
:10ADE000FF05E8D12046FFF717FE002084F8540045
:10ADF00003B030BD1A2813D8102815D940F2852386
:10AE0000A0F11102D2B2D340DB070DD50122074BCE
:10AE100080F0200083F87D0483F87C247D2003E00B
:10AE2000A0F17D03012BF1D9704700BF081000206D
:10AE300049BA89B280EA0103C3F3031253401803ED
:10AE400080B258405B0103F4FF535840704708B587
:10AE5000302383F311884FF20F02034B18805A807E
:10AE6000BFF35F8FFCF70EF83840002008B52DF0D7
:10AE7000DAFB4FF6FF73002818BF0346014AA2F819
:10AE8000883408BD081000204FF07E62F8B54FF6F8
:10AE9000FF73B2F84670B2F84460174D9F4208BF86
:10AEA0004FF448679E4208BF4FF4C876B5F88A440D
:10AEB00060B16400A5F88A44B5F88A34BB4215D95C
:10AEC000A5F88A740023A5F88834F8BDB5F888344D
:10AED000002BF1D02DF0A7FBB5F88834C4EBC404E7
:10AEE000C01A80B204EB8004E408E3E7B34238BF41
:10AEF000A5F88A64E6E700BF081000206E4A2DE935
:10AF0000F0416E4B55686E4C9D65516AD9656D492F
:10AF1000D1F800021866D1F804025866D1F8081278
:10AF2000986B9966916A10F0040FD966D16A4FF058
:10AF300000001967116B5967516B9967D26B1865DF
:10AF4000DA67D3E90F1218BF11465F4A91425A657A
:10AF50005DD301F12000A04259D88869C5F30805E6
:10AF60005864CE69062D9E6455D1584DA84252D3DF
:10AF7000574DA8424FD205884DF6426085424AD1CE
:10AF80005868C3F898009868C3F89C0040F20170B4
:10AF9000A242154604D22E680432B6F1CD3FF7D056
:10AFA0000022C3E92022C3E92222C3E92422641B30
:10AFB000DFF818C1424DDFF818E1DC648D422DD86E
:10AFC000D3E920C7D3E92265D3E924414FF0000E2D
:10AFD000013AD2B2FF2A3CD1BEF1000F05D0C3E93D
:10AFE00020C7C3E92265C3E92441B3F85830C3F34D
:10AFF00008030C2B3BD8022B54D9DA1E092A51D84E
:10B00000DFE802F03157404350505050504D00217E
:10B01000C3E911112C494FF42060B9E755F8044DEC
:10B020006445CBD37445C9D2E607C7D50026294F5E
:10B0300057F8048FA045C1D00136062EF8D132B1A1
:10B04000013AD2B203EB8206C6F88040B6E7052289
:10B05000F8E7E0464FF0010EBC4637462E4625463F
:10B060000C464146B4E740F60120BDE8F0814A2B8A
:10B0700018D1194B9B6913F0020F40F2025318BF0D
:10B080001846F2E740F60320EFE740F2017240F67F
:10B090000423B0F5206F14BF10461846E5E740F6CC
:10B0A0000520E2E740F60722013B6B2B98BF1046D4
:10B0B000DBE740F60220D8E700ED00E03840002052
:10B0C0000810002000E100E008000020D062000825
:10B0D000C0870308B44000200040005B0B4AB2F96F
:10B0E00008301089002BB8BF80F06200B2F90A1056
:10B0F0004300138153890029BCBF83F4805383F03C
:10B100000B03590051815840704700BF0C44002088
:10B1100010B50A4B93F88C2412F002000DD193F86D
:10B120008D1493F88E448C421FBF62F07D02A3F809
:10B13000880483F88F1483F88C2410BD0810002035
:10B14000074A92F99034002B09DB92F88C3403F013
:10B150004101402904BF43F0050382F88C34704755
:10B160000810002038B50E4C04F2924594F88D2456
:10B1700094F897349A4200D138BD28461FF0FEFD5E
:10B18000B4F89434834204BF012384F8963494F8CD
:10B190009734013303F0070384F89734E6E700BFE0
:10B1A00008100020064BB3F89424B3F89814914289
:10B1B00004BF012283F896240022A3F89824704744
:10B1C000081000207028034607B504D103B05DF8CD
:10B1D00004EBFBF761BD074A3D2092F89A140191F8
:10B1E00092F8902404490092022209F0A5FB03B0D2
:10B1F0005DF804FB08100020C08D030807B5034666
:10B20000009102223D20034909F096FB03B05DF84E
:10B2100004FB00BFC18D0308F8B5B84CB4F88834FE
:10B22000BBB32DF000FAB4F88834C01AB4F88A34ED
:10B2300000B298422DDB94F88C34580629D5990732
:10B2400094F88D244CBF94F88F3494F88E349A423D
:10B2500036D00120FFF718FE7320FFF7B3FF4FF041
:10B260007E624FF6FF7194F8A0340133DBB284F8AC
:10B27000A034B2F848208A4208BF032293421CDD62
:10B280005123722084F8A134FFF79CFF202384F817
:10B290008C349B4D94F98C2494F88C34002A1CDA5D
:10B2A00013F0300310D01A20FFF7D8FA94F88C343A
:10B2B00003F07F0384F88C34ECE7FFF729FFE8E71D
:10B2C0000023A4F88834E4E794F8A224022AEDD1FC
:10B2D000A4F8883484F8A234E5E794F8A224012A7B
:10B2E00000F0FB800DD9931E012BD3D894F8B01435
:10B2F000FF2900F00B81002940F0F88094F8A31496
:10B30000F2E09A0719D594F88F2494F88D6494F894
:10B310008E04B11A821A02F0070201F0070191426D
:10B3200098BF84F88F6494F88F24824205D123F06B
:10B33000020384F88C34FFF715FF94F88C6416F040
:10B34000300F20D0B70618D5C22394F8A10484F892
:10B35000A334022384F8A50484F8A4340320012331
:10B3600026F03C0684F88C6494F8A31484F8A23484
:10B370001FF088FDFFF772FA8CE7C12384F8A3342D
:10B38000FBF7A5FAE5E716F00C0F23D0700794F849
:10B39000A61413D56039C9B2802084F8A314FFF72E
:10B3A0002DFF94F88C3403F0F30384F88C3494F874
:10B3B000A63484F8A73401231846D5E781F080012C
:10B3C0007E2084F8A314FFF719FF94F88C3403F05F
:10B3D000F703EAE7B1072ED594F88F6494F8973411
:10B3E000F61A06F00706EFF31187302383F311886E
:10B3F000B4F892042DF0CCF9AEB987F31188BFF3FD
:10B400006F8FA4F8A8042CF0B5F994F88F2494F861
:10B41000A634013043EA021343F0080384F8A3344E
:10B42000C0B20323A0E70146013EB4F892042DF018
:10B43000B4F9F6B2E0E74FF07E634FF6FF70DB8FB2
:10B4400094F88D14834208BF052394F88E240B448E
:10B45000013B521A5B1A02F0070203F007039A42FB
:10B4600030DCB4F89E64AEB1264B1888C4F8AC3416
:10B470002DF08EF9A4F8A8042CF07CF994F88E2411
:10B4800094F8A634013043EA021384F8A334C0B21E
:10B49000022369E7B4F89C34A3B194F8AA346BB1E1
:10B4A0002DF0C1F894F8AA34C3EB1010020607D4AB
:10B4B00084F8AA64B4F89E34002BD5D1124BD4E79B
:10B4C000002BF7D094F8A72494F8A6349A4244D0DD
:10B4D00094F88C3443F00803ECE694F8B034FF2B76
:10B4E0002FD0234493F8A314002041E7013989B2F7
:10B4F000B4F8A80409F00CFE0146F5E70810002096
:10B500009A140020A6140020A4140020022A1CD1A2
:10B5100094F88E34D4F8AC04013303F0070384F8B4
:10B520008E341FF02BFC2846B4F8A8142DF018F91F
:10B53000B4F888340BB9FFF799FC94F8A63484F872
:10B54000A734002384F8A234A4E694F88F3401339E
:10B5500003F0070384F88F34EAE7F8BD07B5064B1C
:10B56000022293F890343D2000930449812309F08E
:10B57000E3F903B05DF804FB08100020C18D030857
:10B58000F8B500240646274630462CF0F3F88742EB
:10B5900000D3F8BD30462CF0EDF8C51BEDB2202DE0
:10B5A0003946304628BF202509F09FFD002C08BFF2
:10B5B00042244219904202D13D44EFB2E4E710F830
:10B5C000013B634000F8013C04F00103C4F347046D
:10B5D000002BEFD084F0B804ECE72DE9F04F85B0F4
:10B5E000002800F0F5807B49D1F8C844D1F8CCE4BC
:10B5F000EFF3118B302383F3118810F8087C30F8B7
:10B6000006CCFE0702D5BCF1000F07D18BF31188E1
:10B61000BFF36F8F012005B0BDE8F08FD1F8BC54A7
:10B62000D1F8C494A5EBCC0330F8048C0193C1F895
:10B63000BC3409F10103A0F108060CF10102C1F8C4
:10B64000C434B8F1000F42D04FEAC8030293A6EB0E
:10B65000C803DD88B3F802A003951D7807F0020740
:10B66000ED0724D427BB039DA5EB0A07012F2ED19C
:10B67000019D0CF10202083D5244C1F8C494C1F886
:10B68000BC5430F8028CB8F1000F22D110F8085CDD
:10B6900020F8068C68F3000500F8085C013A5A802F
:10B6A0001A7868F300021A700022DA8046E077B157
:10B6B000DDE901757D1BC1F8BC5410F8085C4244FB
:10B6C0006FF3410500F8085C00259D80D9E73346FB
:10B6D000D7E7D1F8B454D1F8B87406EBC8092F44B1
:10B6E000B9450ED310F8085C013A6FF3000500F875
:10B6F000085C002520F8065C5A801A7865F3000281
:10B70000D1E716F838604D4616F0010632D010F831
:10B71000086C013A6FF3000600F8086C002692B23C
:10B7200020F8066C5A801A7866F300021A70C3F18A
:10B7300007022A44C2F3CF02DA80AA80002C45D047
:10B740009C4243D86288002A08BF1C46BEF1000F05
:10B7500006D09E4504D3BEF80220002A18BF7346C7
:10B76000C1F8C844C1F8CC348BF31188BFF36F8F94
:10B77000002050E7A8EB0C08B8F1010FC7D1B9F8C9
:10B780000270A9F802601744B9F80620E2B109EB8B
:10B79000C2050026D1F8C424013AC1F8C424D1F866
:10B7A000BC24083AC1F8BC2410F8082C20F8066C18
:10B7B0006FF3000200F8082C1A785F8066F300022D
:10B7C0001A70002DB3D16FE71546E2E71C46BDE7BE
:10B7D000222020E708100020002313B5019369B14F
:10B7E00060B101FB00F401A920461FF02FFC0146C7
:10B7F00020B9019810B122462AF074FB019802B0DA
:10B8000010BD2DE9F04F87B082468946984616460E
:10B81000DDF840B02AB1002B52D040F26C739A424E
:10B8200051D8BBF1010F51D8002406F11007394659
:10B8300001200594FFF7D0FF0546002849D0214696
:10B840003A462AF04FFB05ABCDE9014300942B4665
:10B85000012250464946FEF7A9FB044680B110F18B
:10B860008C0F08BF6FF08D043A46002128462AF05D
:10B8700039FB2846FFF7B1FE204607B0BDE8F08F40
:10B88000154BC5E902A92B60C5F804B02EB13246AC
:10B89000414605F110002BF0F2F8059E3B462A4682
:10B8A00031460E48FCF724FD38B93046FAF77AFFE6
:10B8B000013008BF6FF08604D6E76FF09104D3E73C
:10B8C0006FF08604D8E76FF09104D5E76FF0850438
:10B8D000D2E76FF08C04CFE7105D175EF8130020FD
:10B8E000FEE7002307B5084601A901931FF0AEFB50
:10B8F000019803B05DF804FB08466EE60846114661
:10B900006AE7002303604360704730B5D0E905451E
:10B9100053B394420FD0E2B9046974B9036983B395
:10B92000002918BF0D462B78DB0714D5AB8843B32D
:10B93000A5EBC305F7E704698CB141B90468237826
:10B94000DB070CD5E3884BB104EBC304F7E70C46E7
:10B95000F5E79542E2D0C0E9054530BD1C46954269
:10B96000DCD0002ADAD0F6E7944208D08C4228BF17
:10B970000C46954207D08D4238BF0D46EBE70C468A
:10B98000F7E71D46E7E70D46E5E700232DE9F34716
:10B99000964E0193D6F8B8340C469A42104604D21B
:10B9A00039B912B101A91FF051FB019802B0BDE8ED
:10B9B000F0871AB90846FFF710FEF6E7EFF3118893
:10B9C000302383F3118834F8063C0730DF0020F081
:10B9D0000705AF42A1F1080180F0898034F8020C1C
:10B9E00000286ED0C21A012A6BD101EBC00211F8F7
:10B9F0003000C00765D4B2F802C0A7EB050919EB07
:10BA0000CC095ED4B9F11F0F39DD6119C5F3CF053B
:10BA100024F8065C0135084624F8025CFFF771FF44
:10BA200034F8020C4FEAD9038880D0884B8018B3D1
:10BA30005588451B15FA83F39BB202EBC000CB80FF
:10BA4000838000236A48FFF760FF1046FFF759FF25
:10BA5000002234F8061CD6F8BC34019403EBC10371
:10BA6000D6F8C014DB1B8B42C6F8BC343CD86AB392
:10BA7000083BC6F8BC3429E00023CB80E1E7D6F8C8
:10BA8000C40401330138C6F8C404D088634424F8E0
:10BA9000063C90B15588451B15FA83F39BB202EB27
:10BAA000C00024F8023C838001235148FFF72DFF9A
:10BAB0001046FFF726FF0122CBE7002324F8023CC3
:10BAC000F2E7284601A91FF0C1FA20B188F31188D6
:10BAD000BFF36F8F69E73A46214601982AF0CFFFFE
